{
  "contractName": "HumanReputationClaim",
  "abi": [
    {
      "constant": true,
      "inputs": [],
      "name": "registry",
      "outputs": [
        {
          "internalType": "contract IdentityRegistry",
          "name": "",
          "type": "address"
        }
      ],
      "payable": false,
      "stateMutability": "view",
      "type": "function"
    },
    {
      "inputs": [
        {
          "internalType": "contract IdentityRegistry",
          "name": "_registry",
          "type": "address"
        }
      ],
      "payable": false,
      "stateMutability": "nonpayable",
      "type": "constructor"
    },
    {
      "anonymous": false,
      "inputs": [
        {
          "indexed": true,
          "internalType": "address",
          "name": "_avatar",
          "type": "address"
        },
        {
          "indexed": true,
          "internalType": "address",
          "name": "_human",
          "type": "address"
        },
        {
          "indexed": false,
          "internalType": "uint256",
          "name": "_amount",
          "type": "uint256"
        }
      ],
      "name": "HumanReputationClaimed",
      "type": "event"
    },
    {
      "constant": false,
      "inputs": [
        {
          "internalType": "contract Avatar",
          "name": "_avatar",
          "type": "address"
        },
        {
          "internalType": "address",
          "name": "_human",
          "type": "address"
        }
      ],
      "name": "claim",
      "outputs": [
        {
          "internalType": "uint256",
          "name": "reputation",
          "type": "uint256"
        }
      ],
      "payable": false,
      "stateMutability": "nonpayable",
      "type": "function"
    }
  ],
  "bytecode": "0x608060405234801561001057600080fd5b50604051610ab5380380610ab58339818101604052602081101561003357600080fd5b8101908080519060200190929190505050806000806101000a81548173ffffffffffffffffffffffffffffffffffffffff021916908373ffffffffffffffffffffffffffffffffffffffff16021790555050610a21806100946000396000f3fe608060405234801561001057600080fd5b50600436106100365760003560e01c806321c0b3421461003b5780637b103999146100b3575b600080fd5b61009d6004803603604081101561005157600080fd5b81019080803573ffffffffffffffffffffffffffffffffffffffff169060200190929190803573ffffffffffffffffffffffffffffffffffffffff1690602001909291905050506100fd565b6040518082815260200191505060405180910390f35b6100bb61062f565b604051808273ffffffffffffffffffffffffffffffffffffffff1673ffffffffffffffffffffffffffffffffffffffff16815260200191505060405180910390f35b60008060009054906101000a900473ffffffffffffffffffffffffffffffffffffffff1673ffffffffffffffffffffffffffffffffffffffff1663f72c436f836040518263ffffffff1660e01b8152600401808273ffffffffffffffffffffffffffffffffffffffff1673ffffffffffffffffffffffffffffffffffffffff16815260200191505060206040518083038186803b15801561019d57600080fd5b505afa1580156101b1573d6000803e3d6000fd5b505050506040513d60208110156101c757600080fd5b810190808051906020019092919050505061024a576040517f08c379a00000000000000000000000000000000000000000000000000000000081526004018080602001828103825260178152602001807f68756d616e206973206e6f74207265676973746572656400000000000000000081525060200191505060405180910390fd5b61025383610654565b60001c9050600081116102b1576040517f08c379a00000000000000000000000000000000000000000000000000000000081526004018080602001828103825260218152602001806109cc6021913960400191505060405180910390fd5b60008373ffffffffffffffffffffffffffffffffffffffff166389ae1c906040518163ffffffff1660e01b815260040160206040518083038186803b1580156102f957600080fd5b505afa15801561030d573d6000803e3d6000fd5b505050506040513d602081101561032357600080fd5b810190808051906020019092919050505073ffffffffffffffffffffffffffffffffffffffff166370a08231846040518263ffffffff1660e01b8152600401808273ffffffffffffffffffffffffffffffffffffffff1673ffffffffffffffffffffffffffffffffffffffff16815260200191505060206040518083038186803b1580156103b057600080fd5b505afa1580156103c4573d6000803e3d6000fd5b505050506040513d60208110156103da57600080fd5b810190808051906020019092919050505014610441576040517f08c379a00000000000000000000000000000000000000000000000000000000081526004018080602001828103825260248152602001806109a86024913960400191505060405180910390fd5b8273ffffffffffffffffffffffffffffffffffffffff16638da5cb5b6040518163ffffffff1660e01b815260040160206040518083038186803b15801561048757600080fd5b505afa15801561049b573d6000803e3d6000fd5b505050506040513d60208110156104b157600080fd5b810190808051906020019092919050505073ffffffffffffffffffffffffffffffffffffffff1663eaf994b28284866040518463ffffffff1660e01b8152600401808481526020018373ffffffffffffffffffffffffffffffffffffffff1673ffffffffffffffffffffffffffffffffffffffff1681526020018273ffffffffffffffffffffffffffffffffffffffff1673ffffffffffffffffffffffffffffffffffffffff1681526020019350505050602060405180830381600087803b15801561057c57600080fd5b505af1158015610590573d6000803e3d6000fd5b505050506040513d60208110156105a657600080fd5b8101908080519060200190929190505050610629576040517f08c379a00000000000000000000000000000000000000000000000000000000081526004018080602001828103825260188152602001807f6661696c656420746f206d696e7452657075746174696f6e000000000000000081525060200191505060405180910390fd5b92915050565b6000809054906101000a900473ffffffffffffffffffffffffffffffffffffffff1681565b60008173ffffffffffffffffffffffffffffffffffffffff16638da5cb5b6040518163ffffffff1660e01b815260040160206040518083038186803b15801561069c57600080fd5b505afa1580156106b0573d6000803e3d6000fd5b505050506040513d60208110156106c657600080fd5b810190808051906020019092919050505073ffffffffffffffffffffffffffffffffffffffff16639be2faed30846040518363ffffffff1660e01b8152600401808373ffffffffffffffffffffffffffffffffffffffff1673ffffffffffffffffffffffffffffffffffffffff1681526020018273ffffffffffffffffffffffffffffffffffffffff1673ffffffffffffffffffffffffffffffffffffffff1681526020019250505060206040518083038186803b15801561078757600080fd5b505afa15801561079b573d6000803e3d6000fd5b505050506040513d60208110156107b157600080fd5b8101908080519060200190929190505050610834576040517f08c379a00000000000000000000000000000000000000000000000000000000081526004018080602001828103825260188152602001807f736368656d65206973206e6f742072656769737465726564000000000000000081525060200191505060405180910390fd5b8173ffffffffffffffffffffffffffffffffffffffff16638da5cb5b6040518163ffffffff1660e01b815260040160206040518083038186803b15801561087a57600080fd5b505afa15801561088e573d6000803e3d6000fd5b505050506040513d60208110156108a457600080fd5b810190808051906020019092919050505073ffffffffffffffffffffffffffffffffffffffff16631c4d560830846040518363ffffffff1660e01b8152600401808373ffffffffffffffffffffffffffffffffffffffff1673ffffffffffffffffffffffffffffffffffffffff1681526020018273ffffffffffffffffffffffffffffffffffffffff1673ffffffffffffffffffffffffffffffffffffffff1681526020019250505060206040518083038186803b15801561096557600080fd5b505afa158015610979573d6000803e3d6000fd5b505050506040513d602081101561098f57600080fd5b8101908080519060200190929190505050905091905056fe68756d616e2068617320616c726561647920636c61696d65642072657075746174696f6e72657075746174696f6e206d7573742062652067726561746572207468616e2030a265627a7a723158205b522c31c91cb6fa1fbfd50d1e817b5d745901c25c602d76d26faa666605baa964736f6c634300050b0032",
  "source": "pragma solidity ^0.5.0;\n\nimport \"@daostack/infra/contracts/Reputation.sol\";\nimport \"@daostack/arc/contracts/universalSchemes/UniversalScheme.sol\";\nimport \"./IdentityRegistry.sol\";\n\ncontract HumanReputationClaim is UniversalScheme {\n\n  event HumanReputationClaimed(\n    address indexed _avatar,\n    address indexed _human,\n    uint256 _amount\n  );\n\n  // A registry of humans\n  IdentityRegistry public registry;\n\n  constructor(IdentityRegistry _registry) public {\n    registry = _registry;\n  }\n\n  function claim(Avatar _avatar, address _human) public returns(uint256 reputation) {\n    require(registry.isHuman(_human), \"human is not registered\");\n\n    // Fetch the amount of reputation the human is claiming.\n    // As an optimization, this is simply stored in the controller\n    // as this scheme's params, instead of doing the typical hashing and storing.\n    reputation = uint256(getParametersFromController(_avatar));\n\n    require(reputation > 0, \"reputation must be greater than 0\");\n    require(\n      _avatar.nativeReputation().balanceOf(_human) == 0,\n      \"human has already claimed reputation\"\n    );\n    require(\n      ControllerInterface(_avatar.owner()).mintReputation(\n        uint(reputation), _human, address(_avatar)\n      ),\n      \"failed to mintReputation\"\n    );\n  }\n}\n",
  "sourcePath": "/home/jelli/Dev/Repos/dOrg/ID-DAO/dao/contracts/HumanReputationClaim.sol",
  "compiler": {
    "name": "solc",
    "version": "0.5.11+commit.c082d0b4.Emscripten.clang"
  },
  "schemaVersion": "3.0.11",
  "updatedAt": "2019-09-26T23:59:57.331Z",
  "devdoc": {
    "methods": {}
  },
  "userdoc": {
    "methods": {}
  }
}