{
  "contractName": "IdentityRegistry",
  "abi": [
    {
      "constant": true,
      "inputs": [
        {
          "name": "",
          "type": "address"
        }
      ],
      "name": "registry",
      "outputs": [
        {
          "name": "",
          "type": "bytes"
        }
      ],
      "payable": false,
      "stateMutability": "view",
      "type": "function"
    },
    {
      "constant": false,
      "inputs": [],
      "name": "renounceOwnership",
      "outputs": [],
      "payable": false,
      "stateMutability": "nonpayable",
      "type": "function"
    },
    {
      "constant": true,
      "inputs": [],
      "name": "owner",
      "outputs": [
        {
          "name": "",
          "type": "address"
        }
      ],
      "payable": false,
      "stateMutability": "view",
      "type": "function"
    },
    {
      "constant": true,
      "inputs": [],
      "name": "isOwner",
      "outputs": [
        {
          "name": "",
          "type": "bool"
        }
      ],
      "payable": false,
      "stateMutability": "view",
      "type": "function"
    },
    {
      "constant": false,
      "inputs": [
        {
          "name": "newOwner",
          "type": "address"
        }
      ],
      "name": "transferOwnership",
      "outputs": [],
      "payable": false,
      "stateMutability": "nonpayable",
      "type": "function"
    },
    {
      "anonymous": false,
      "inputs": [
        {
          "indexed": true,
          "name": "previousOwner",
          "type": "address"
        },
        {
          "indexed": true,
          "name": "newOwner",
          "type": "address"
        }
      ],
      "name": "OwnershipTransferred",
      "type": "event"
    },
    {
      "anonymous": false,
      "inputs": [
        {
          "indexed": true,
          "name": "_id",
          "type": "address"
        },
        {
          "indexed": true,
          "name": "_metadata",
          "type": "bytes"
        },
        {
          "indexed": false,
          "name": "_sig",
          "type": "bytes"
        }
      ],
      "name": "Add",
      "type": "event"
    },
    {
      "anonymous": false,
      "inputs": [
        {
          "indexed": true,
          "name": "_id",
          "type": "address"
        },
        {
          "indexed": true,
          "name": "_metadata",
          "type": "bytes"
        }
      ],
      "name": "Remove",
      "type": "event"
    },
    {
      "anonymous": false,
      "inputs": [
        {
          "indexed": true,
          "name": "_id",
          "type": "address"
        },
        {
          "indexed": true,
          "name": "_oldMetadata",
          "type": "bytes"
        },
        {
          "indexed": true,
          "name": "_newMetadata",
          "type": "bytes"
        },
        {
          "indexed": false,
          "name": "_sig",
          "type": "bytes"
        }
      ],
      "name": "Update",
      "type": "event"
    },
    {
      "constant": false,
      "inputs": [
        {
          "name": "id",
          "type": "address"
        },
        {
          "name": "metadata",
          "type": "bytes"
        },
        {
          "name": "sig",
          "type": "bytes"
        }
      ],
      "name": "add",
      "outputs": [],
      "payable": false,
      "stateMutability": "nonpayable",
      "type": "function"
    },
    {
      "constant": false,
      "inputs": [
        {
          "name": "id",
          "type": "address"
        },
        {
          "name": "metadata",
          "type": "bytes"
        },
        {
          "name": "sig",
          "type": "bytes"
        }
      ],
      "name": "update",
      "outputs": [],
      "payable": false,
      "stateMutability": "nonpayable",
      "type": "function"
    },
    {
      "constant": false,
      "inputs": [
        {
          "name": "id",
          "type": "address"
        }
      ],
      "name": "remove",
      "outputs": [],
      "payable": false,
      "stateMutability": "nonpayable",
      "type": "function"
    },
    {
      "constant": false,
      "inputs": [],
      "name": "removeSelf",
      "outputs": [],
      "payable": false,
      "stateMutability": "nonpayable",
      "type": "function"
    },
    {
      "constant": true,
      "inputs": [
        {
          "name": "id",
          "type": "address"
        }
      ],
      "name": "isHuman",
      "outputs": [
        {
          "name": "",
          "type": "bool"
        }
      ],
      "payable": false,
      "stateMutability": "view",
      "type": "function"
    }
  ],
  "bytecode": "0x608060405233600160006101000a81548173ffffffffffffffffffffffffffffffffffffffff021916908373ffffffffffffffffffffffffffffffffffffffff160217905550600160009054906101000a900473ffffffffffffffffffffffffffffffffffffffff1673ffffffffffffffffffffffffffffffffffffffff16600073ffffffffffffffffffffffffffffffffffffffff167f8be0079c531659141344cd1fd0a4f28419497f9722a3daafe3b4186f6b6457e060405160405180910390a36116bf806100d16000396000f3fe608060405234801561001057600080fd5b50600436106100bb576000357c0100000000000000000000000000000000000000000000000000000000900480638f32d59b116100835780638f32d59b1461021f578063f2fde38b14610241578063f72c436f14610285578063f89b1f36146102e1578063fa2a95f314610453576100bb565b8063038defd7146100c057806329092d0e1461017d5780635e898dac146101c1578063715018a6146101cb5780638da5cb5b146101d5575b600080fd5b610102600480360360208110156100d657600080fd5b81019080803573ffffffffffffffffffffffffffffffffffffffff1690602001909291905050506105c5565b6040518080602001828103825283818151815260200191508051906020019080838360005b83811015610142578082015181840152602081019050610127565b50505050905090810190601f16801561016f5780820380516001836020036101000a031916815260200191505b509250505060405180910390f35b6101bf6004803603602081101561019357600080fd5b81019080803573ffffffffffffffffffffffffffffffffffffffff169060200190929190505050610675565b005b6101c96106fd565b005b6101d3610785565b005b6101dd6108c2565b604051808273ffffffffffffffffffffffffffffffffffffffff1673ffffffffffffffffffffffffffffffffffffffff16815260200191505060405180910390f35b6102276108ec565b604051808215151515815260200191505060405180910390f35b6102836004803603602081101561025757600080fd5b81019080803573ffffffffffffffffffffffffffffffffffffffff169060200190929190505050610944565b005b6102c76004803603602081101561029b57600080fd5b81019080803573ffffffffffffffffffffffffffffffffffffffff1690602001909291905050506109cc565b604051808215151515815260200191505060405180910390f35b610451600480360360608110156102f757600080fd5b81019080803573ffffffffffffffffffffffffffffffffffffffff1690602001909291908035906020019064010000000081111561033457600080fd5b82018360208201111561034657600080fd5b8035906020019184600183028401116401000000008311171561036857600080fd5b91908080601f016020809104026020016040519081016040528093929190818152602001838380828437600081840152601f19601f820116905080830192505050505050509192919290803590602001906401000000008111156103cb57600080fd5b8201836020820111156103dd57600080fd5b803590602001918460018302840111640100000000831117156103ff57600080fd5b91908080601f016020809104026020016040519081016040528093929190818152602001838380828437600081840152601f19601f820116905080830192505050505050509192919290505050610a2b565b005b6105c36004803603606081101561046957600080fd5b81019080803573ffffffffffffffffffffffffffffffffffffffff169060200190929190803590602001906401000000008111156104a657600080fd5b8201836020820111156104b857600080fd5b803590602001918460018302840111640100000000831117156104da57600080fd5b91908080601f016020809104026020016040519081016040528093929190818152602001838380828437600081840152601f19601f8201169050808301925050505050505091929192908035906020019064010000000081111561053d57600080fd5b82018360208201111561054f57600080fd5b8035906020019184600183028401116401000000008311171561057157600080fd5b91908080601f016020809104026020016040519081016040528093929190818152602001838380828437600081840152601f19601f820116905080830192505050505050509192919290505050610ab7565b005b60006020528060005260406000206000915090508054600181600116156101000203166002900480601f01602080910402602001604051908101604052809291908181526020018280546001816001161561010002031660029004801561066d5780601f106106425761010080835404028352916020019161066d565b820191906000526020600020905b81548152906001019060200180831161065057829003601f168201915b505050505081565b61067d6108ec565b15156106f1576040517f08c379a00000000000000000000000000000000000000000000000000000000081526004018080602001828103825260208152602001807f4f776e61626c653a2063616c6c6572206973206e6f7420746865206f776e657281525060200191505060405180910390fd5b6106fa81610b43565b50565b610706336109cc565b151561077a576040517f08c379a00000000000000000000000000000000000000000000000000000000081526004018080602001828103825260158152602001807f53656e646572206973206e6f7420612068756d616e000000000000000000000081525060200191505060405180910390fd5b61078333610b43565b565b61078d6108ec565b1515610801576040517f08c379a00000000000000000000000000000000000000000000000000000000081526004018080602001828103825260208152602001807f4f776e61626c653a2063616c6c6572206973206e6f7420746865206f776e657281525060200191505060405180910390fd5b600073ffffffffffffffffffffffffffffffffffffffff16600160009054906101000a900473ffffffffffffffffffffffffffffffffffffffff1673ffffffffffffffffffffffffffffffffffffffff167f8be0079c531659141344cd1fd0a4f28419497f9722a3daafe3b4186f6b6457e060405160405180910390a36000600160006101000a81548173ffffffffffffffffffffffffffffffffffffffff021916908373ffffffffffffffffffffffffffffffffffffffff160217905550565b6000600160009054906101000a900473ffffffffffffffffffffffffffffffffffffffff16905090565b6000600160009054906101000a900473ffffffffffffffffffffffffffffffffffffffff1673ffffffffffffffffffffffffffffffffffffffff163373ffffffffffffffffffffffffffffffffffffffff1614905090565b61094c6108ec565b15156109c0576040517f08c379a00000000000000000000000000000000000000000000000000000000081526004018080602001828103825260208152602001807f4f776e61626c653a2063616c6c6572206973206e6f7420746865206f776e657281525060200191505060405180910390fd5b6109c981610c79565b50565b6000806000808473ffffffffffffffffffffffffffffffffffffffff1673ffffffffffffffffffffffffffffffffffffffff16815260200190815260200160002080546001816001161561010002031660029004905014159050919050565b610a336108ec565b1515610aa7576040517f08c379a00000000000000000000000000000000000000000000000000000000081526004018080602001828103825260208152602001807f4f776e61626c653a2063616c6c6572206973206e6f7420746865206f776e657281525060200191505060405180910390fd5b610ab2838383610dc1565b505050565b610abf6108ec565b1515610b33576040517f08c379a00000000000000000000000000000000000000000000000000000000081526004018080602001828103825260208152602001807f4f776e61626c653a2063616c6c6572206973206e6f7420746865206f776e657281525060200191505060405180910390fd5b610b3e838383611144565b505050565b6000808273ffffffffffffffffffffffffffffffffffffffff1673ffffffffffffffffffffffffffffffffffffffff1681526020019081526020016000206040518082805460018160011615610100020316600290048015610bdc5780601f10610bba576101008083540402835291820191610bdc565b820191906000526020600020905b815481529060010190602001808311610bc8575b505091505060405180910390208173ffffffffffffffffffffffffffffffffffffffff167fbdcd99ab14b163a4dad6ebffc4e2452d7366d9bc8e3629d7dc083976c59bd0c560405160405180910390a36000808273ffffffffffffffffffffffffffffffffffffffff1673ffffffffffffffffffffffffffffffffffffffff1681526020019081526020016000206000610c769190611580565b50565b600073ffffffffffffffffffffffffffffffffffffffff168173ffffffffffffffffffffffffffffffffffffffff1614151515610d01576040517f08c379a000000000000000000000000000000000000000000000000000000000815260040180806020018281038252602681526020018061166e6026913960400191505060405180910390fd5b8073ffffffffffffffffffffffffffffffffffffffff16600160009054906101000a900473ffffffffffffffffffffffffffffffffffffffff1673ffffffffffffffffffffffffffffffffffffffff167f8be0079c531659141344cd1fd0a4f28419497f9722a3daafe3b4186f6b6457e060405160405180910390a380600160006101000a81548173ffffffffffffffffffffffffffffffffffffffff021916908373ffffffffffffffffffffffffffffffffffffffff16021790555050565b828282600073ffffffffffffffffffffffffffffffffffffffff168373ffffffffffffffffffffffffffffffffffffffff1614151515610e69576040517f08c379a000000000000000000000000000000000000000000000000000000000815260040180806020018281038252601d8152602001807f75736572206d757374206e6f74206265207a65726f206164647265737300000081525060200191505060405180910390fd5b8273ffffffffffffffffffffffffffffffffffffffff16610ea282610e948580519060200120611421565b61147990919063ffffffff16565b73ffffffffffffffffffffffffffffffffffffffff16141515610f2d576040517f08c379a00000000000000000000000000000000000000000000000000000000081526004018080602001828103825260188152602001807f5369676e617475726520646f6573206e6f74206d61746368000000000000000081525060200191505060405180910390fd5b846040518082805190602001908083835b602083101515610f635780518252602082019150602081019050602083039250610f3e565b6001836020036101000a03801982511681845116808217855250505050505090500191505060405180910390206000808873ffffffffffffffffffffffffffffffffffffffff1673ffffffffffffffffffffffffffffffffffffffff16815260200190815260200160002060405180828054600181600116156101000203166002900480156110295780601f10611007576101008083540402835291820191611029565b820191906000526020600020905b815481529060010190602001808311611015575b505091505060405180910390208773ffffffffffffffffffffffffffffffffffffffff167fe75428ff36dfa6c46a5ad298e6a51c0894ddbd9aba5d5c923ca424d9098ca3d1876040518080602001828103825283818151815260200191508051906020019080838360005b838110156110af578082015181840152602081019050611094565b50505050905090810190601f1680156110dc5780820380516001836020036101000a031916815260200191505b509250505060405180910390a4846000808873ffffffffffffffffffffffffffffffffffffffff1673ffffffffffffffffffffffffffffffffffffffff168152602001908152602001600020908051906020019061113b9291906115c8565b50505050505050565b828282600073ffffffffffffffffffffffffffffffffffffffff168373ffffffffffffffffffffffffffffffffffffffff16141515156111ec576040517f08c379a000000000000000000000000000000000000000000000000000000000815260040180806020018281038252601d8152602001807f75736572206d757374206e6f74206265207a65726f206164647265737300000081525060200191505060405180910390fd5b8273ffffffffffffffffffffffffffffffffffffffff16611225826112178580519060200120611421565b61147990919063ffffffff16565b73ffffffffffffffffffffffffffffffffffffffff161415156112b0576040517f08c379a00000000000000000000000000000000000000000000000000000000081526004018080602001828103825260188152602001807f5369676e617475726520646f6573206e6f74206d61746368000000000000000081525060200191505060405180910390fd5b846040518082805190602001908083835b6020831015156112e657805182526020820191506020810190506020830392506112c1565b6001836020036101000a03801982511681845116808217855250505050505090500191505060405180910390208673ffffffffffffffffffffffffffffffffffffffff167f7a53b76f68935f59d3983a6a8aec2e1f927b2a170f4cc3bb2bb0e955e1c7d176866040518080602001828103825283818151815260200191508051906020019080838360005b8381101561138c578082015181840152602081019050611371565b50505050905090810190601f1680156113b95780820380516001836020036101000a031916815260200191505b509250505060405180910390a3846000808873ffffffffffffffffffffffffffffffffffffffff1673ffffffffffffffffffffffffffffffffffffffff16815260200190815260200160002090805190602001906114189291906115c8565b50505050505050565b60008160405160200180807f19457468657265756d205369676e6564204d6573736167653a0a333200000000815250601c01828152602001915050604051602081830303815290604052805190602001209050919050565b60006041825114151561148f576000905061157a565b60008060006020850151925060408501519150606085015160001a90507f7fffffffffffffffffffffffffffffff5d576e7357a4501ddfe92f46681b20a0826001900411156114e4576000935050505061157a565b601b8160ff16141580156114fc5750601c8160ff1614155b1561150d576000935050505061157a565b60018682858560405160008152602001604052604051808581526020018460ff1660ff1681526020018381526020018281526020019450505050506020604051602081039080840390855afa15801561156a573d6000803e3d6000fd5b5050506020604051035193505050505b92915050565b50805460018160011615610100020316600290046000825580601f106115a657506115c5565b601f0160209004906000526020600020908101906115c49190611648565b5b50565b828054600181600116156101000203166002900490600052602060002090601f016020900481019282601f1061160957805160ff1916838001178555611637565b82800160010185558215611637579182015b8281111561163657825182559160200191906001019061161b565b5b5090506116449190611648565b5090565b61166a91905b8082111561166657600081600090555060010161164e565b5090565b9056fe4f776e61626c653a206e6577206f776e657220697320746865207a65726f2061646472657373a165627a7a723058207a9aec05582dc3c2dd1826f0dbd3e2fced6de181ac134b706ca29c4fc92d877b0029",
  "source": "pragma solidity ^0.5.0;\n\nimport \"./registry/SignedRegistry.sol\";\nimport \"./human/HumanContract.sol\";\nimport \"openzeppelin-solidity/contracts/ownership/Ownable.sol\";\nimport \"openzeppelin-solidity/contracts/cryptography/ECDSA.sol\";\n\n/**\n * @title IdentityRegistry\n * @author Luis Dominguez <ld@luis.sh>, Jordan Ellis <jelli@dorg.tech>\n *\n * @dev An Identity Registry contract built off of Registry. Re-exposes functionality\n * in restricting it to the owner. Additional removeSelf() function added, allowing for\n * any registered identity to remove themselves as they wish.\n */\ncontract IdentityRegistry is SignedRegistry, Ownable, HumanContract {\n\n    /**\n     * @dev Simple add function, adds an address along with metadata associated with the identity.\n     * Restricted to owner.\n     *\n     * @param id address to add\n     * @param metadata a hash of the identity metadata definition\n     * @param sig the user's signature over this metadata\n     */\n    function add(\n        address id,\n        bytes memory metadata,\n        bytes memory sig\n    ) public onlyOwner {\n        _add(id, metadata, sig);\n    }\n\n    /**\n     * @dev Simple update function, updates an address along with metadata associated with the identity.\n     * Restricted to owner.\n     *\n     * @param id address to update\n     * @param metadata a hash of the identity metadata definition\n     * @param sig the user's signature over this metadata\n     */\n    function update(\n        address id,\n        bytes memory metadata,\n        bytes memory sig\n    ) public onlyOwner {\n        _update(id, metadata, sig);\n    }\n\n    /**\n     * @dev Simple remove function, removes an address along with metadata associated with the identity.\n     * Restricted to owner.\n     *\n     * @param id address to delete\n     */\n    function remove(address id) public onlyOwner {\n        _remove(id);\n    }\n\n    /**\n     * @dev Allows a registeredidentity to remove themselves from the registry.\n     * Restricted to registered identity.\n     */\n    function removeSelf() public onlyHuman {\n        _remove(msg.sender);\n    }\n\n    /**\n     * @dev Determines whether a passed address is human or not. Checks existence in registry to determine this.\n     *\n     * @param id address to check\n     * @return bool Human status of address\n     */\n    function isHuman(address id) public view returns (bool) {\n        return registry[id].length != 0;\n    }\n}\n",
  "sourcePath": "/home/jelli/Dev/Repos/dOrg/ID-DAO/dao/contracts/IdentityRegistry.sol",
  "compiler": {
    "name": "solc",
    "version": "0.5.4+commit.9549d8ff.Emscripten.clang"
  },
  "schemaVersion": "3.0.11",
  "updatedAt": "2019-09-16T04:06:25.084Z",
  "devdoc": {
    "author": "Luis Dominguez <ld@luis.sh>, Jordan Ellis <jelli@dorg.tech>",
    "details": "An Identity Registry contract built off of Registry. Re-exposes functionality in restricting it to the owner. Additional removeSelf() function added, allowing for any registered identity to remove themselves as they wish.",
    "methods": {
      "add(address,bytes,bytes)": {
        "details": "Simple add function, adds an address along with metadata associated with the identity. Restricted to owner.",
        "params": {
          "id": "address to add",
          "metadata": "a hash of the identity metadata definition",
          "sig": "the user's signature over this metadata"
        }
      },
      "isHuman(address)": {
        "details": "Determines whether a passed address is human or not. Checks existence in registry to determine this.",
        "params": {
          "id": "address to check"
        },
        "return": "bool Human status of address"
      },
      "isOwner()": {
        "details": "Returns true if the caller is the current owner."
      },
      "owner()": {
        "details": "Returns the address of the current owner."
      },
      "remove(address)": {
        "details": "Simple remove function, removes an address along with metadata associated with the identity. Restricted to owner.",
        "params": {
          "id": "address to delete"
        }
      },
      "removeSelf()": {
        "details": "Allows a registeredidentity to remove themselves from the registry. Restricted to registered identity."
      },
      "renounceOwnership()": {
        "details": "Leaves the contract without owner. It will not be possible to call `onlyOwner` functions anymore. Can only be called by the current owner.     * > Note: Renouncing ownership will leave the contract without an owner, thereby removing any functionality that is only available to the owner."
      },
      "transferOwnership(address)": {
        "details": "Transfers ownership of the contract to a new account (`newOwner`). Can only be called by the current owner."
      },
      "update(address,bytes,bytes)": {
        "details": "Simple update function, updates an address along with metadata associated with the identity. Restricted to owner.",
        "params": {
          "id": "address to update",
          "metadata": "a hash of the identity metadata definition",
          "sig": "the user's signature over this metadata"
        }
      }
    },
    "title": "IdentityRegistry"
  },
  "userdoc": {
    "methods": {}
  }
}