{
  "contractName": "IdentityRegistry",
  "abi": [
    {
      "constant": false,
      "inputs": [],
      "name": "renounceOwnership",
      "outputs": [],
      "payable": false,
      "stateMutability": "nonpayable",
      "type": "function"
    },
    {
      "constant": true,
      "inputs": [],
      "name": "owner",
      "outputs": [
        {
          "name": "",
          "type": "address"
        }
      ],
      "payable": false,
      "stateMutability": "view",
      "type": "function"
    },
    {
      "constant": true,
      "inputs": [],
      "name": "isOwner",
      "outputs": [
        {
          "name": "",
          "type": "bool"
        }
      ],
      "payable": false,
      "stateMutability": "view",
      "type": "function"
    },
    {
      "constant": false,
      "inputs": [
        {
          "name": "newOwner",
          "type": "address"
        }
      ],
      "name": "transferOwnership",
      "outputs": [],
      "payable": false,
      "stateMutability": "nonpayable",
      "type": "function"
    },
    {
      "anonymous": false,
      "inputs": [
        {
          "indexed": true,
          "name": "_id",
          "type": "address"
        },
        {
          "indexed": true,
          "name": "_metadata",
          "type": "bytes"
        }
      ],
      "name": "Add",
      "type": "event"
    },
    {
      "anonymous": false,
      "inputs": [
        {
          "indexed": true,
          "name": "_id",
          "type": "address"
        },
        {
          "indexed": true,
          "name": "_metadata",
          "type": "bytes"
        }
      ],
      "name": "Remove",
      "type": "event"
    },
    {
      "anonymous": false,
      "inputs": [
        {
          "indexed": true,
          "name": "_id",
          "type": "address"
        },
        {
          "indexed": true,
          "name": "_oldMetadata",
          "type": "bytes"
        },
        {
          "indexed": true,
          "name": "_newMetadata",
          "type": "bytes"
        }
      ],
      "name": "Update",
      "type": "event"
    },
    {
      "anonymous": false,
      "inputs": [
        {
          "indexed": true,
          "name": "previousOwner",
          "type": "address"
        },
        {
          "indexed": true,
          "name": "newOwner",
          "type": "address"
        }
      ],
      "name": "OwnershipTransferred",
      "type": "event"
    },
    {
      "constant": false,
      "inputs": [
        {
          "name": "id",
          "type": "address"
        },
        {
          "name": "metadata",
          "type": "bytes"
        }
      ],
      "name": "add",
      "outputs": [],
      "payable": false,
      "stateMutability": "nonpayable",
      "type": "function"
    },
    {
      "constant": false,
      "inputs": [
        {
          "name": "id",
          "type": "address"
        }
      ],
      "name": "remove",
      "outputs": [],
      "payable": false,
      "stateMutability": "nonpayable",
      "type": "function"
    },
    {
      "constant": false,
      "inputs": [
        {
          "name": "id",
          "type": "address"
        },
        {
          "name": "metadata",
          "type": "bytes"
        }
      ],
      "name": "update",
      "outputs": [],
      "payable": false,
      "stateMutability": "nonpayable",
      "type": "function"
    },
    {
      "constant": true,
      "inputs": [
        {
          "name": "id",
          "type": "address"
        }
      ],
      "name": "isHuman",
      "outputs": [
        {
          "name": "",
          "type": "bool"
        }
      ],
      "payable": false,
      "stateMutability": "view",
      "type": "function"
    }
  ],
  "bytecode": "0x6080604052336000806101000a81548173ffffffffffffffffffffffffffffffffffffffff021916908373ffffffffffffffffffffffffffffffffffffffff1602179055506000809054906101000a900473ffffffffffffffffffffffffffffffffffffffff1673ffffffffffffffffffffffffffffffffffffffff16600073ffffffffffffffffffffffffffffffffffffffff167f8be0079c531659141344cd1fd0a4f28419497f9722a3daafe3b4186f6b6457e060405160405180910390a3610fad806100cf6000396000f3fe608060405234801561001057600080fd5b50600436106100a5576000357c0100000000000000000000000000000000000000000000000000000000900480638da5cb5b116100785780638da5cb5b146102ae5780638f32d59b146102f8578063f2fde38b1461031a578063f72c436f1461035e576100a5565b806302a688ed146100aa5780630b2acb3f1461018557806329092d0e14610260578063715018a6146102a4575b600080fd5b610183600480360360408110156100c057600080fd5b81019080803573ffffffffffffffffffffffffffffffffffffffff169060200190929190803590602001906401000000008111156100fd57600080fd5b82018360208201111561010f57600080fd5b8035906020019184600183028401116401000000008311171561013157600080fd5b91908080601f016020809104026020016040519081016040528093929190818152602001838380828437600081840152601f19601f8201169050808301925050505050505091929192905050506103ba565b005b61025e6004803603604081101561019b57600080fd5b81019080803573ffffffffffffffffffffffffffffffffffffffff169060200190929190803590602001906401000000008111156101d857600080fd5b8201836020820111156101ea57600080fd5b8035906020019184600183028401116401000000008311171561020c57600080fd5b91908080601f016020809104026020016040519081016040528093929190818152602001838380828437600081840152601f19601f82011690508083019250505050505050919291929050505061065a565b005b6102a26004803603602081101561027657600080fd5b81019080803573ffffffffffffffffffffffffffffffffffffffff169060200190929190505050610853565b005b6102ac610a86565b005b6102b6610bc1565b604051808273ffffffffffffffffffffffffffffffffffffffff1673ffffffffffffffffffffffffffffffffffffffff16815260200191505060405180910390f35b610300610bea565b604051808215151515815260200191505060405180910390f35b61035c6004803603602081101561033057600080fd5b81019080803573ffffffffffffffffffffffffffffffffffffffff169060200190929190505050610c41565b005b6103a06004803603602081101561037457600080fd5b81019080803573ffffffffffffffffffffffffffffffffffffffff169060200190929190505050610cc9565b604051808215151515815260200191505060405180910390f35b6103c2610bea565b1515610436576040517f08c379a00000000000000000000000000000000000000000000000000000000081526004018080602001828103825260208152602001807f4f776e61626c653a2063616c6c6572206973206e6f7420746865206f776e657281525060200191505060405180910390fd5b8161044081610cc9565b15156104b4576040517f08c379a000000000000000000000000000000000000000000000000000000000815260040180806020018281038252601a8152602001807f49442070726f7669646564206973206e6f7420612068756d616e00000000000081525060200191505060405180910390fd5b816040518082805190602001908083835b6020831015156104ea57805182526020820191506020810190506020830392506104c5565b6001836020036101000a0380198251168184511680821785525050505050509050019150506040518091039020600160008573ffffffffffffffffffffffffffffffffffffffff1673ffffffffffffffffffffffffffffffffffffffff16815260200190815260200160002060405180828054600181600116156101000203166002900480156105b15780601f1061058f5761010080835404028352918201916105b1565b820191906000526020600020905b81548152906001019060200180831161059d575b505091505060405180910390208473ffffffffffffffffffffffffffffffffffffffff167f1f8a3ece3ed2f0c4bf6d88ac6fbc4ba6de238d892adeba14ac7228029e24dde860405160405180910390a481600160008573ffffffffffffffffffffffffffffffffffffffff1673ffffffffffffffffffffffffffffffffffffffff1681526020019081526020016000209080519060200190610654929190610e6e565b50505050565b610662610bea565b15156106d6576040517f08c379a00000000000000000000000000000000000000000000000000000000081526004018080602001828103825260208152602001807f4f776e61626c653a2063616c6c6572206973206e6f7420746865206f776e657281525060200191505060405180910390fd5b816106e081610cc9565b1515610754576040517f08c379a000000000000000000000000000000000000000000000000000000000815260040180806020018281038252601a8152602001807f49442070726f7669646564206973206e6f7420612068756d616e00000000000081525060200191505060405180910390fd5b816040518082805190602001908083835b60208310151561078a5780518252602082019150602081019050602083039250610765565b6001836020036101000a03801982511681845116808217855250505050505090500191505060405180910390208373ffffffffffffffffffffffffffffffffffffffff167f3ae15370f610a749f13a34143e806250bb57429490bc286bc4ad0d62d681b16760405160405180910390a381600160008573ffffffffffffffffffffffffffffffffffffffff1673ffffffffffffffffffffffffffffffffffffffff168152602001908152602001600020908051906020019061084d929190610e6e565b50505050565b61085b610bea565b15156108cf576040517f08c379a00000000000000000000000000000000000000000000000000000000081526004018080602001828103825260208152602001807f4f776e61626c653a2063616c6c6572206973206e6f7420746865206f776e657281525060200191505060405180910390fd5b806108d981610cc9565b151561094d576040517f08c379a000000000000000000000000000000000000000000000000000000000815260040180806020018281038252601a8152602001807f49442070726f7669646564206973206e6f7420612068756d616e00000000000081525060200191505060405180910390fd5b600160008373ffffffffffffffffffffffffffffffffffffffff1673ffffffffffffffffffffffffffffffffffffffff16815260200190815260200160002060405180828054600181600116156101000203166002900480156109e75780601f106109c55761010080835404028352918201916109e7565b820191906000526020600020905b8154815290600101906020018083116109d3575b505091505060405180910390208273ffffffffffffffffffffffffffffffffffffffff167fbdcd99ab14b163a4dad6ebffc4e2452d7366d9bc8e3629d7dc083976c59bd0c560405160405180910390a3600160008373ffffffffffffffffffffffffffffffffffffffff1673ffffffffffffffffffffffffffffffffffffffff1681526020019081526020016000206000610a829190610eee565b5050565b610a8e610bea565b1515610b02576040517f08c379a00000000000000000000000000000000000000000000000000000000081526004018080602001828103825260208152602001807f4f776e61626c653a2063616c6c6572206973206e6f7420746865206f776e657281525060200191505060405180910390fd5b600073ffffffffffffffffffffffffffffffffffffffff166000809054906101000a900473ffffffffffffffffffffffffffffffffffffffff1673ffffffffffffffffffffffffffffffffffffffff167f8be0079c531659141344cd1fd0a4f28419497f9722a3daafe3b4186f6b6457e060405160405180910390a360008060006101000a81548173ffffffffffffffffffffffffffffffffffffffff021916908373ffffffffffffffffffffffffffffffffffffffff160217905550565b60008060009054906101000a900473ffffffffffffffffffffffffffffffffffffffff16905090565b60008060009054906101000a900473ffffffffffffffffffffffffffffffffffffffff1673ffffffffffffffffffffffffffffffffffffffff163373ffffffffffffffffffffffffffffffffffffffff1614905090565b610c49610bea565b1515610cbd576040517f08c379a00000000000000000000000000000000000000000000000000000000081526004018080602001828103825260208152602001807f4f776e61626c653a2063616c6c6572206973206e6f7420746865206f776e657281525060200191505060405180910390fd5b610cc681610d28565b50565b600080600160008473ffffffffffffffffffffffffffffffffffffffff1673ffffffffffffffffffffffffffffffffffffffff168152602001908152602001600020805460018160011615610100020316600290049050149050919050565b600073ffffffffffffffffffffffffffffffffffffffff168173ffffffffffffffffffffffffffffffffffffffff1614151515610db0576040517f08c379a0000000000000000000000000000000000000000000000000000000008152600401808060200182810382526026815260200180610f5c6026913960400191505060405180910390fd5b8073ffffffffffffffffffffffffffffffffffffffff166000809054906101000a900473ffffffffffffffffffffffffffffffffffffffff1673ffffffffffffffffffffffffffffffffffffffff167f8be0079c531659141344cd1fd0a4f28419497f9722a3daafe3b4186f6b6457e060405160405180910390a3806000806101000a81548173ffffffffffffffffffffffffffffffffffffffff021916908373ffffffffffffffffffffffffffffffffffffffff16021790555050565b828054600181600116156101000203166002900490600052602060002090601f016020900481019282601f10610eaf57805160ff1916838001178555610edd565b82800160010185558215610edd579182015b82811115610edc578251825591602001919060010190610ec1565b5b509050610eea9190610f36565b5090565b50805460018160011615610100020316600290046000825580601f10610f145750610f33565b601f016020900490600052602060002090810190610f329190610f36565b5b50565b610f5891905b80821115610f54576000816000905550600101610f3c565b5090565b9056fe4f776e61626c653a206e6577206f776e657220697320746865207a65726f2061646472657373a165627a7a723058209a51e3767562ce3b2578eba6e0820c8cd24e090fe151ccc3a7c07a514507c4e50029",
  "source": "pragma solidity ^0.5.0;\n\nimport \"./IRegistry.sol\";\nimport \"./IVerifyHuman.sol\";\nimport 'openzeppelin-solidity/contracts/ownership/Ownable.sol';\n\ncontract IdentityRegistry is Ownable, IRegistry, IVerifyHuman {\n\n    event Add(\n        address indexed _id,\n        bytes indexed _metadata\n    );\n\n    event Remove(\n        address indexed _id,\n        bytes indexed _metadata\n    );\n\n    event Update(\n        address indexed _id,\n        bytes indexed _oldMetadata,\n        bytes indexed _newMetadata\n    );\n\n    mapping (address => bytes) registry;\n\n    modifier onlyHuman(address id) {\n        require(isHuman(id), \"ID provided is not a human\");\n        _;\n    }\n\n    function add(\n        address id,\n        bytes memory metadata\n    ) public onlyOwner onlyHuman(id) {\n        emit Add(id, metadata);\n        registry[id] = metadata;\n    }\n\n    function remove(address id) public onlyOwner onlyHuman(id) {\n        emit Remove(id, registry[id]);\n        delete registry[id];\n    }\n\n    function update(\n        address id,\n        bytes memory metadata\n    ) public onlyOwner onlyHuman(id) {\n        emit Update(id, registry[id], metadata);\n        registry[id] = metadata;\n    }\n\n    function isHuman(address id) public view returns (bool) {\n        return registry[id].length == 0;\n    }\n}\n",
  "sourcePath": "/home/luiserebii/github/IdentityDAO/dao/contracts/IdentityRegistry.sol",
  "compiler": {
    "name": "solc",
    "version": "0.5.4+commit.9549d8ff.Emscripten.clang"
  },
  "schemaVersion": "3.0.6",
  "updatedAt": "2019-07-21T22:05:31.903Z",
  "devdoc": {
    "methods": {
      "isOwner()": {
        "details": "Returns true if the caller is the current owner."
      },
      "owner()": {
        "details": "Returns the address of the current owner."
      },
      "renounceOwnership()": {
        "details": "Leaves the contract without owner. It will not be possible to call `onlyOwner` functions anymore. Can only be called by the current owner.     * > Note: Renouncing ownership will leave the contract without an owner, thereby removing any functionality that is only available to the owner."
      },
      "transferOwnership(address)": {
        "details": "Transfers ownership of the contract to a new account (`newOwner`). Can only be called by the current owner."
      }
    }
  },
  "userdoc": {
    "methods": {}
  }
}