{
  "contractName": "IdentityRegistry",
  "abi": [
    {
      "constant": true,
      "inputs": [
        {
          "internalType": "address",
          "name": "",
          "type": "address"
        }
      ],
      "name": "registry",
      "outputs": [
        {
          "internalType": "bytes",
          "name": "",
          "type": "bytes"
        }
      ],
      "payable": false,
      "stateMutability": "view",
      "type": "function"
    },
    {
      "constant": false,
      "inputs": [],
      "name": "renounceOwnership",
      "outputs": [],
      "payable": false,
      "stateMutability": "nonpayable",
      "type": "function"
    },
    {
      "constant": true,
      "inputs": [],
      "name": "owner",
      "outputs": [
        {
          "internalType": "address",
          "name": "",
          "type": "address"
        }
      ],
      "payable": false,
      "stateMutability": "view",
      "type": "function"
    },
    {
      "constant": true,
      "inputs": [],
      "name": "isOwner",
      "outputs": [
        {
          "internalType": "bool",
          "name": "",
          "type": "bool"
        }
      ],
      "payable": false,
      "stateMutability": "view",
      "type": "function"
    },
    {
      "constant": false,
      "inputs": [
        {
          "internalType": "address",
          "name": "newOwner",
          "type": "address"
        }
      ],
      "name": "transferOwnership",
      "outputs": [],
      "payable": false,
      "stateMutability": "nonpayable",
      "type": "function"
    },
    {
      "anonymous": false,
      "inputs": [
        {
          "indexed": true,
          "internalType": "address",
          "name": "previousOwner",
          "type": "address"
        },
        {
          "indexed": true,
          "internalType": "address",
          "name": "newOwner",
          "type": "address"
        }
      ],
      "name": "OwnershipTransferred",
      "type": "event"
    },
    {
      "anonymous": false,
      "inputs": [
        {
          "indexed": true,
          "internalType": "address",
          "name": "_id",
          "type": "address"
        },
        {
          "indexed": true,
          "internalType": "bytes",
          "name": "_metadata",
          "type": "bytes"
        },
        {
          "indexed": false,
          "internalType": "bytes",
          "name": "_sig",
          "type": "bytes"
        }
      ],
      "name": "Add",
      "type": "event"
    },
    {
      "anonymous": false,
      "inputs": [
        {
          "indexed": true,
          "internalType": "address",
          "name": "_id",
          "type": "address"
        },
        {
          "indexed": true,
          "internalType": "bytes",
          "name": "_metadata",
          "type": "bytes"
        }
      ],
      "name": "Remove",
      "type": "event"
    },
    {
      "anonymous": false,
      "inputs": [
        {
          "indexed": true,
          "internalType": "address",
          "name": "_id",
          "type": "address"
        },
        {
          "indexed": true,
          "internalType": "bytes",
          "name": "_oldMetadata",
          "type": "bytes"
        },
        {
          "indexed": true,
          "internalType": "bytes",
          "name": "_newMetadata",
          "type": "bytes"
        },
        {
          "indexed": false,
          "internalType": "bytes",
          "name": "_sig",
          "type": "bytes"
        }
      ],
      "name": "Update",
      "type": "event"
    },
    {
      "constant": false,
      "inputs": [
        {
          "internalType": "address",
          "name": "id",
          "type": "address"
        },
        {
          "internalType": "bytes",
          "name": "metadata",
          "type": "bytes"
        },
        {
          "internalType": "bytes",
          "name": "sig",
          "type": "bytes"
        }
      ],
      "name": "add",
      "outputs": [],
      "payable": false,
      "stateMutability": "nonpayable",
      "type": "function"
    },
    {
      "constant": false,
      "inputs": [
        {
          "internalType": "address",
          "name": "id",
          "type": "address"
        },
        {
          "internalType": "bytes",
          "name": "metadata",
          "type": "bytes"
        },
        {
          "internalType": "bytes",
          "name": "sig",
          "type": "bytes"
        }
      ],
      "name": "update",
      "outputs": [],
      "payable": false,
      "stateMutability": "nonpayable",
      "type": "function"
    },
    {
      "constant": false,
      "inputs": [
        {
          "internalType": "address",
          "name": "id",
          "type": "address"
        }
      ],
      "name": "remove",
      "outputs": [],
      "payable": false,
      "stateMutability": "nonpayable",
      "type": "function"
    },
    {
      "constant": false,
      "inputs": [],
      "name": "removeSelf",
      "outputs": [],
      "payable": false,
      "stateMutability": "nonpayable",
      "type": "function"
    },
    {
      "constant": true,
      "inputs": [
        {
          "internalType": "address",
          "name": "id",
          "type": "address"
        }
      ],
      "name": "isHuman",
      "outputs": [
        {
          "internalType": "bool",
          "name": "",
          "type": "bool"
        }
      ],
      "payable": false,
      "stateMutability": "view",
      "type": "function"
    }
  ],
  "bytecode": "0x608060405233600160006101000a81548173ffffffffffffffffffffffffffffffffffffffff021916908373ffffffffffffffffffffffffffffffffffffffff160217905550600160009054906101000a900473ffffffffffffffffffffffffffffffffffffffff1673ffffffffffffffffffffffffffffffffffffffff16600073ffffffffffffffffffffffffffffffffffffffff167f8be0079c531659141344cd1fd0a4f28419497f9722a3daafe3b4186f6b6457e060405160405180910390a361168e806100d16000396000f3fe608060405234801561001057600080fd5b506004361061009e5760003560e01c80638f32d59b116100665780638f32d59b14610202578063f2fde38b14610224578063f72c436f14610268578063f89b1f36146102c4578063fa2a95f3146104365761009e565b8063038defd7146100a357806329092d0e146101605780635e898dac146101a4578063715018a6146101ae5780638da5cb5b146101b8575b600080fd5b6100e5600480360360208110156100b957600080fd5b81019080803573ffffffffffffffffffffffffffffffffffffffff1690602001909291905050506105a8565b6040518080602001828103825283818151815260200191508051906020019080838360005b8381101561012557808201518184015260208101905061010a565b50505050905090810190601f1680156101525780820380516001836020036101000a031916815260200191505b509250505060405180910390f35b6101a26004803603602081101561017657600080fd5b81019080803573ffffffffffffffffffffffffffffffffffffffff169060200190929190505050610658565b005b6101ac6106de565b005b6101b6610764565b005b6101c061089f565b604051808273ffffffffffffffffffffffffffffffffffffffff1673ffffffffffffffffffffffffffffffffffffffff16815260200191505060405180910390f35b61020a6108c9565b604051808215151515815260200191505060405180910390f35b6102666004803603602081101561023a57600080fd5b81019080803573ffffffffffffffffffffffffffffffffffffffff169060200190929190505050610921565b005b6102aa6004803603602081101561027e57600080fd5b81019080803573ffffffffffffffffffffffffffffffffffffffff1690602001909291905050506109a7565b604051808215151515815260200191505060405180910390f35b610434600480360360608110156102da57600080fd5b81019080803573ffffffffffffffffffffffffffffffffffffffff1690602001909291908035906020019064010000000081111561031757600080fd5b82018360208201111561032957600080fd5b8035906020019184600183028401116401000000008311171561034b57600080fd5b91908080601f016020809104026020016040519081016040528093929190818152602001838380828437600081840152601f19601f820116905080830192505050505050509192919290803590602001906401000000008111156103ae57600080fd5b8201836020820111156103c057600080fd5b803590602001918460018302840111640100000000831117156103e257600080fd5b91908080601f016020809104026020016040519081016040528093929190818152602001838380828437600081840152601f19601f820116905080830192505050505050509192919290505050610a06565b005b6105a66004803603606081101561044c57600080fd5b81019080803573ffffffffffffffffffffffffffffffffffffffff1690602001909291908035906020019064010000000081111561048957600080fd5b82018360208201111561049b57600080fd5b803590602001918460018302840111640100000000831117156104bd57600080fd5b91908080601f016020809104026020016040519081016040528093929190818152602001838380828437600081840152601f19601f8201169050808301925050505050505091929192908035906020019064010000000081111561052057600080fd5b82018360208201111561053257600080fd5b8035906020019184600183028401116401000000008311171561055457600080fd5b91908080601f016020809104026020016040519081016040528093929190818152602001838380828437600081840152601f19601f820116905080830192505050505050509192919290505050610a90565b005b60006020528060005260406000206000915090508054600181600116156101000203166002900480601f0160208091040260200160405190810160405280929190818152602001828054600181600116156101000203166002900480156106505780601f1061062557610100808354040283529160200191610650565b820191906000526020600020905b81548152906001019060200180831161063357829003601f168201915b505050505081565b6106606108c9565b6106d2576040517f08c379a00000000000000000000000000000000000000000000000000000000081526004018080602001828103825260208152602001807f4f776e61626c653a2063616c6c6572206973206e6f7420746865206f776e657281525060200191505060405180910390fd5b6106db81610b1a565b50565b6106e7336109a7565b610759576040517f08c379a00000000000000000000000000000000000000000000000000000000081526004018080602001828103825260158152602001807f53656e646572206973206e6f7420612068756d616e000000000000000000000081525060200191505060405180910390fd5b61076233610b1a565b565b61076c6108c9565b6107de576040517f08c379a00000000000000000000000000000000000000000000000000000000081526004018080602001828103825260208152602001807f4f776e61626c653a2063616c6c6572206973206e6f7420746865206f776e657281525060200191505060405180910390fd5b600073ffffffffffffffffffffffffffffffffffffffff16600160009054906101000a900473ffffffffffffffffffffffffffffffffffffffff1673ffffffffffffffffffffffffffffffffffffffff167f8be0079c531659141344cd1fd0a4f28419497f9722a3daafe3b4186f6b6457e060405160405180910390a36000600160006101000a81548173ffffffffffffffffffffffffffffffffffffffff021916908373ffffffffffffffffffffffffffffffffffffffff160217905550565b6000600160009054906101000a900473ffffffffffffffffffffffffffffffffffffffff16905090565b6000600160009054906101000a900473ffffffffffffffffffffffffffffffffffffffff1673ffffffffffffffffffffffffffffffffffffffff163373ffffffffffffffffffffffffffffffffffffffff1614905090565b6109296108c9565b61099b576040517f08c379a00000000000000000000000000000000000000000000000000000000081526004018080602001828103825260208152602001807f4f776e61626c653a2063616c6c6572206973206e6f7420746865206f776e657281525060200191505060405180910390fd5b6109a481610c50565b50565b6000806000808473ffffffffffffffffffffffffffffffffffffffff1673ffffffffffffffffffffffffffffffffffffffff16815260200190815260200160002080546001816001161561010002031660029004905014159050919050565b610a0e6108c9565b610a80576040517f08c379a00000000000000000000000000000000000000000000000000000000081526004018080602001828103825260208152602001807f4f776e61626c653a2063616c6c6572206973206e6f7420746865206f776e657281525060200191505060405180910390fd5b610a8b838383610d96565b505050565b610a986108c9565b610b0a576040517f08c379a00000000000000000000000000000000000000000000000000000000081526004018080602001828103825260208152602001807f4f776e61626c653a2063616c6c6572206973206e6f7420746865206f776e657281525060200191505060405180910390fd5b610b15838383611113565b505050565b6000808273ffffffffffffffffffffffffffffffffffffffff1673ffffffffffffffffffffffffffffffffffffffff1681526020019081526020016000206040518082805460018160011615610100020316600290048015610bb35780601f10610b91576101008083540402835291820191610bb3565b820191906000526020600020905b815481529060010190602001808311610b9f575b505091505060405180910390208173ffffffffffffffffffffffffffffffffffffffff167fbdcd99ab14b163a4dad6ebffc4e2452d7366d9bc8e3629d7dc083976c59bd0c560405160405180910390a36000808273ffffffffffffffffffffffffffffffffffffffff1673ffffffffffffffffffffffffffffffffffffffff1681526020019081526020016000206000610c4d9190611546565b50565b600073ffffffffffffffffffffffffffffffffffffffff168173ffffffffffffffffffffffffffffffffffffffff161415610cd6576040517f08c379a00000000000000000000000000000000000000000000000000000000081526004018080602001828103825260268152602001806116346026913960400191505060405180910390fd5b8073ffffffffffffffffffffffffffffffffffffffff16600160009054906101000a900473ffffffffffffffffffffffffffffffffffffffff1673ffffffffffffffffffffffffffffffffffffffff167f8be0079c531659141344cd1fd0a4f28419497f9722a3daafe3b4186f6b6457e060405160405180910390a380600160006101000a81548173ffffffffffffffffffffffffffffffffffffffff021916908373ffffffffffffffffffffffffffffffffffffffff16021790555050565b828282600073ffffffffffffffffffffffffffffffffffffffff168373ffffffffffffffffffffffffffffffffffffffff161415610e3c576040517f08c379a000000000000000000000000000000000000000000000000000000000815260040180806020018281038252601d8152602001807f75736572206d757374206e6f74206265207a65726f206164647265737300000081525060200191505060405180910390fd5b8273ffffffffffffffffffffffffffffffffffffffff16610e7582610e6785805190602001206113ea565b61144290919063ffffffff16565b73ffffffffffffffffffffffffffffffffffffffff1614610efe576040517f08c379a00000000000000000000000000000000000000000000000000000000081526004018080602001828103825260188152602001807f5369676e617475726520646f6573206e6f74206d61746368000000000000000081525060200191505060405180910390fd5b846040518082805190602001908083835b60208310610f325780518252602082019150602081019050602083039250610f0f565b6001836020036101000a03801982511681845116808217855250505050505090500191505060405180910390206000808873ffffffffffffffffffffffffffffffffffffffff1673ffffffffffffffffffffffffffffffffffffffff1681526020019081526020016000206040518082805460018160011615610100020316600290048015610ff85780601f10610fd6576101008083540402835291820191610ff8565b820191906000526020600020905b815481529060010190602001808311610fe4575b505091505060405180910390208773ffffffffffffffffffffffffffffffffffffffff167fe75428ff36dfa6c46a5ad298e6a51c0894ddbd9aba5d5c923ca424d9098ca3d1876040518080602001828103825283818151815260200191508051906020019080838360005b8381101561107e578082015181840152602081019050611063565b50505050905090810190601f1680156110ab5780820380516001836020036101000a031916815260200191505b509250505060405180910390a4846000808873ffffffffffffffffffffffffffffffffffffffff1673ffffffffffffffffffffffffffffffffffffffff168152602001908152602001600020908051906020019061110a92919061158e565b50505050505050565b828282600073ffffffffffffffffffffffffffffffffffffffff168373ffffffffffffffffffffffffffffffffffffffff1614156111b9576040517f08c379a000000000000000000000000000000000000000000000000000000000815260040180806020018281038252601d8152602001807f75736572206d757374206e6f74206265207a65726f206164647265737300000081525060200191505060405180910390fd5b8273ffffffffffffffffffffffffffffffffffffffff166111f2826111e485805190602001206113ea565b61144290919063ffffffff16565b73ffffffffffffffffffffffffffffffffffffffff161461127b576040517f08c379a00000000000000000000000000000000000000000000000000000000081526004018080602001828103825260188152602001807f5369676e617475726520646f6573206e6f74206d61746368000000000000000081525060200191505060405180910390fd5b846040518082805190602001908083835b602083106112af578051825260208201915060208101905060208303925061128c565b6001836020036101000a03801982511681845116808217855250505050505090500191505060405180910390208673ffffffffffffffffffffffffffffffffffffffff167f7a53b76f68935f59d3983a6a8aec2e1f927b2a170f4cc3bb2bb0e955e1c7d176866040518080602001828103825283818151815260200191508051906020019080838360005b8381101561135557808201518184015260208101905061133a565b50505050905090810190601f1680156113825780820380516001836020036101000a031916815260200191505b509250505060405180910390a3846000808873ffffffffffffffffffffffffffffffffffffffff1673ffffffffffffffffffffffffffffffffffffffff16815260200190815260200160002090805190602001906113e192919061158e565b50505050505050565b60008160405160200180807f19457468657265756d205369676e6564204d6573736167653a0a333200000000815250601c01828152602001915050604051602081830303815290604052805190602001209050919050565b600060418251146114565760009050611540565b60008060006020850151925060408501519150606085015160001a90507f7fffffffffffffffffffffffffffffff5d576e7357a4501ddfe92f46681b20a08260001c11156114aa5760009350505050611540565b601b8160ff16141580156114c25750601c8160ff1614155b156114d35760009350505050611540565b60018682858560405160008152602001604052604051808581526020018460ff1660ff1681526020018381526020018281526020019450505050506020604051602081039080840390855afa158015611530573d6000803e3d6000fd5b5050506020604051035193505050505b92915050565b50805460018160011615610100020316600290046000825580601f1061156c575061158b565b601f01602090049060005260206000209081019061158a919061160e565b5b50565b828054600181600116156101000203166002900490600052602060002090601f016020900481019282601f106115cf57805160ff19168380011785556115fd565b828001600101855582156115fd579182015b828111156115fc5782518255916020019190600101906115e1565b5b50905061160a919061160e565b5090565b61163091905b8082111561162c576000816000905550600101611614565b5090565b9056fe4f776e61626c653a206e6577206f776e657220697320746865207a65726f2061646472657373a265627a7a72315820dff0ff36190ced0c52e9b517f067f740480a0e88660c8bf2432de1c2c053d83d64736f6c634300050b0032",
  "source": "pragma solidity ^0.5.0;\n\nimport \"./registry/SignedRegistry.sol\";\nimport \"./human/HumanContract.sol\";\nimport \"openzeppelin-solidity/contracts/ownership/Ownable.sol\";\nimport \"openzeppelin-solidity/contracts/cryptography/ECDSA.sol\";\n\n/**\n * @title IdentityRegistry\n * @author Luis Dominguez <ld@luis.sh>, Jordan Ellis <jelli@dorg.tech>\n *\n * @dev An Identity Registry contract built off of Registry. Re-exposes functionality\n * in restricting it to the owner. Additional removeSelf() function added, allowing for\n * any registered identity to remove themselves as they wish.\n */\ncontract IdentityRegistry is SignedRegistry, Ownable, HumanContract {\n\n    /**\n     * @dev Simple add function, adds an address along with metadata associated with the identity.\n     * Restricted to owner.\n     *\n     * @param id address to add\n     * @param metadata a hash of the identity metadata definition\n     * @param sig the user's signature over this metadata\n     */\n    function add(\n        address id,\n        bytes memory metadata,\n        bytes memory sig\n    ) public onlyOwner {\n        _add(id, metadata, sig);\n    }\n\n    /**\n     * @dev Simple update function, updates an address along with metadata associated with the identity.\n     * Restricted to owner.\n     *\n     * @param id address to update\n     * @param metadata a hash of the identity metadata definition\n     * @param sig the user's signature over this metadata\n     */\n    function update(\n        address id,\n        bytes memory metadata,\n        bytes memory sig\n    ) public onlyOwner {\n        _update(id, metadata, sig);\n    }\n\n    /**\n     * @dev Simple remove function, removes an address along with metadata associated with the identity.\n     * Restricted to owner.\n     *\n     * @param id address to delete\n     */\n    function remove(address id) public onlyOwner {\n        _remove(id);\n    }\n\n    /**\n     * @dev Allows a registeredidentity to remove themselves from the registry.\n     * Restricted to registered identity.\n     */\n    function removeSelf() public onlyHuman {\n        _remove(msg.sender);\n    }\n\n    /**\n     * @dev Determines whether a passed address is human or not. Checks existence in registry to determine this.\n     *\n     * @param id address to check\n     * @return bool Human status of address\n     */\n    function isHuman(address id) public view returns (bool) {\n        return registry[id].length != 0;\n    }\n}\n",
  "sourcePath": "/home/jelli/Dev/Repos/dOrg/ID-DAO/dao/contracts/IdentityRegistry.sol",
  "compiler": {
    "name": "solc",
    "version": "0.5.11+commit.c082d0b4.Emscripten.clang"
  },
  "schemaVersion": "3.0.11",
  "updatedAt": "2019-09-26T23:59:57.334Z",
  "devdoc": {
    "author": "Luis Dominguez <ld@luis.sh>, Jordan Ellis <jelli@dorg.tech>",
    "details": "An Identity Registry contract built off of Registry. Re-exposes functionality in restricting it to the owner. Additional removeSelf() function added, allowing for any registered identity to remove themselves as they wish.",
    "methods": {
      "add(address,bytes,bytes)": {
        "details": "Simple add function, adds an address along with metadata associated with the identity. Restricted to owner.",
        "params": {
          "id": "address to add",
          "metadata": "a hash of the identity metadata definition",
          "sig": "the user's signature over this metadata"
        }
      },
      "isHuman(address)": {
        "details": "Determines whether a passed address is human or not. Checks existence in registry to determine this.",
        "params": {
          "id": "address to check"
        },
        "return": "bool Human status of address"
      },
      "isOwner()": {
        "details": "Returns true if the caller is the current owner."
      },
      "owner()": {
        "details": "Returns the address of the current owner."
      },
      "remove(address)": {
        "details": "Simple remove function, removes an address along with metadata associated with the identity. Restricted to owner.",
        "params": {
          "id": "address to delete"
        }
      },
      "removeSelf()": {
        "details": "Allows a registeredidentity to remove themselves from the registry. Restricted to registered identity."
      },
      "renounceOwnership()": {
        "details": "Leaves the contract without owner. It will not be possible to call `onlyOwner` functions anymore. Can only be called by the current owner.     * > Note: Renouncing ownership will leave the contract without an owner, thereby removing any functionality that is only available to the owner."
      },
      "transferOwnership(address)": {
        "details": "Transfers ownership of the contract to a new account (`newOwner`). Can only be called by the current owner."
      },
      "update(address,bytes,bytes)": {
        "details": "Simple update function, updates an address along with metadata associated with the identity. Restricted to owner.",
        "params": {
          "id": "address to update",
          "metadata": "a hash of the identity metadata definition",
          "sig": "the user's signature over this metadata"
        }
      }
    },
    "title": "IdentityRegistry"
  },
  "userdoc": {
    "methods": {}
  }
}