{
  "contractName": "SignedRegistry",
  "abi": [
    {
      "constant": true,
      "inputs": [
        {
          "name": "",
          "type": "address"
        }
      ],
      "name": "registry",
      "outputs": [
        {
          "name": "",
          "type": "bytes"
        }
      ],
      "payable": false,
      "stateMutability": "view",
      "type": "function"
    },
    {
      "anonymous": false,
      "inputs": [
        {
          "indexed": true,
          "name": "_id",
          "type": "address"
        },
        {
          "indexed": true,
          "name": "_metadata",
          "type": "bytes"
        },
        {
          "indexed": false,
          "name": "_sig",
          "type": "bytes"
        }
      ],
      "name": "Add",
      "type": "event"
    },
    {
      "anonymous": false,
      "inputs": [
        {
          "indexed": true,
          "name": "_id",
          "type": "address"
        },
        {
          "indexed": true,
          "name": "_metadata",
          "type": "bytes"
        }
      ],
      "name": "Remove",
      "type": "event"
    },
    {
      "anonymous": false,
      "inputs": [
        {
          "indexed": true,
          "name": "_id",
          "type": "address"
        },
        {
          "indexed": true,
          "name": "_oldMetadata",
          "type": "bytes"
        },
        {
          "indexed": true,
          "name": "_newMetadata",
          "type": "bytes"
        },
        {
          "indexed": false,
          "name": "_sig",
          "type": "bytes"
        }
      ],
      "name": "Update",
      "type": "event"
    },
    {
      "constant": false,
      "inputs": [
        {
          "name": "id",
          "type": "address"
        },
        {
          "name": "metadata",
          "type": "bytes"
        },
        {
          "name": "sig",
          "type": "bytes"
        }
      ],
      "name": "add",
      "outputs": [],
      "payable": false,
      "stateMutability": "nonpayable",
      "type": "function"
    },
    {
      "constant": false,
      "inputs": [
        {
          "name": "id",
          "type": "address"
        }
      ],
      "name": "remove",
      "outputs": [],
      "payable": false,
      "stateMutability": "nonpayable",
      "type": "function"
    },
    {
      "constant": false,
      "inputs": [
        {
          "name": "id",
          "type": "address"
        },
        {
          "name": "metadata",
          "type": "bytes"
        },
        {
          "name": "sig",
          "type": "bytes"
        }
      ],
      "name": "update",
      "outputs": [],
      "payable": false,
      "stateMutability": "nonpayable",
      "type": "function"
    }
  ],
  "bytecode": "0x608060405234801561001057600080fd5b50610f3d806100206000396000f3fe608060405234801561001057600080fd5b5060043610610069576000357c010000000000000000000000000000000000000000000000000000000090048063038defd71461006e57806329092d0e1461012b578063f89b1f361461016f578063fa2a95f3146102e1575b600080fd5b6100b06004803603602081101561008457600080fd5b81019080803573ffffffffffffffffffffffffffffffffffffffff169060200190929190505050610453565b6040518080602001828103825283818151815260200191508051906020019080838360005b838110156100f05780820151818401526020810190506100d5565b50505050905090810190601f16801561011d5780820380516001836020036101000a031916815260200191505b509250505060405180910390f35b61016d6004803603602081101561014157600080fd5b81019080803573ffffffffffffffffffffffffffffffffffffffff169060200190929190505050610503565b005b6102df6004803603606081101561018557600080fd5b81019080803573ffffffffffffffffffffffffffffffffffffffff169060200190929190803590602001906401000000008111156101c257600080fd5b8201836020820111156101d457600080fd5b803590602001918460018302840111640100000000831117156101f657600080fd5b91908080601f016020809104026020016040519081016040528093929190818152602001838380828437600081840152601f19601f8201169050808301925050505050505091929192908035906020019064010000000081111561025957600080fd5b82018360208201111561026b57600080fd5b8035906020019184600183028401116401000000008311171561028d57600080fd5b91908080601f016020809104026020016040519081016040528093929190818152602001838380828437600081840152601f19601f82011690508083019250505050505050919291929050505061050f565b005b610451600480360360608110156102f757600080fd5b81019080803573ffffffffffffffffffffffffffffffffffffffff1690602001909291908035906020019064010000000081111561033457600080fd5b82018360208201111561034657600080fd5b8035906020019184600183028401116401000000008311171561036857600080fd5b91908080601f016020809104026020016040519081016040528093929190818152602001838380828437600081840152601f19601f820116905080830192505050505050509192919290803590602001906401000000008111156103cb57600080fd5b8201836020820111156103dd57600080fd5b803590602001918460018302840111640100000000831117156103ff57600080fd5b91908080601f016020809104026020016040519081016040528093929190818152602001838380828437600081840152601f19601f82011690508083019250505050505050919291929050505061051f565b005b60006020528060005260406000206000915090508054600181600116156101000203166002900480601f0160208091040260200160405190810160405280929190818152602001828054600181600116156101000203166002900480156104fb5780601f106104d0576101008083540402835291602001916104fb565b820191906000526020600020905b8154815290600101906020018083116104de57829003601f168201915b505050505081565b61050c8161052f565b50565b61051a838383610665565b505050565b61052a8383836109e8565b505050565b6000808273ffffffffffffffffffffffffffffffffffffffff1673ffffffffffffffffffffffffffffffffffffffff16815260200190815260200160002060405180828054600181600116156101000203166002900480156105c85780601f106105a65761010080835404028352918201916105c8565b820191906000526020600020905b8154815290600101906020018083116105b4575b505091505060405180910390208173ffffffffffffffffffffffffffffffffffffffff167fbdcd99ab14b163a4dad6ebffc4e2452d7366d9bc8e3629d7dc083976c59bd0c560405160405180910390a36000808273ffffffffffffffffffffffffffffffffffffffff1673ffffffffffffffffffffffffffffffffffffffff16815260200190815260200160002060006106629190610e24565b50565b828282600073ffffffffffffffffffffffffffffffffffffffff168373ffffffffffffffffffffffffffffffffffffffff161415151561070d576040517f08c379a000000000000000000000000000000000000000000000000000000000815260040180806020018281038252601d8152602001807f75736572206d757374206e6f74206265207a65726f206164647265737300000081525060200191505060405180910390fd5b8273ffffffffffffffffffffffffffffffffffffffff16610746826107388580519060200120610cc5565b610d1d90919063ffffffff16565b73ffffffffffffffffffffffffffffffffffffffff161415156107d1576040517f08c379a00000000000000000000000000000000000000000000000000000000081526004018080602001828103825260188152602001807f5369676e617475726520646f6573206e6f74206d61746368000000000000000081525060200191505060405180910390fd5b846040518082805190602001908083835b60208310151561080757805182526020820191506020810190506020830392506107e2565b6001836020036101000a03801982511681845116808217855250505050505090500191505060405180910390206000808873ffffffffffffffffffffffffffffffffffffffff1673ffffffffffffffffffffffffffffffffffffffff16815260200190815260200160002060405180828054600181600116156101000203166002900480156108cd5780601f106108ab5761010080835404028352918201916108cd565b820191906000526020600020905b8154815290600101906020018083116108b9575b505091505060405180910390208773ffffffffffffffffffffffffffffffffffffffff167fe75428ff36dfa6c46a5ad298e6a51c0894ddbd9aba5d5c923ca424d9098ca3d1876040518080602001828103825283818151815260200191508051906020019080838360005b83811015610953578082015181840152602081019050610938565b50505050905090810190601f1680156109805780820380516001836020036101000a031916815260200191505b509250505060405180910390a4846000808873ffffffffffffffffffffffffffffffffffffffff1673ffffffffffffffffffffffffffffffffffffffff16815260200190815260200160002090805190602001906109df929190610e6c565b50505050505050565b828282600073ffffffffffffffffffffffffffffffffffffffff168373ffffffffffffffffffffffffffffffffffffffff1614151515610a90576040517f08c379a000000000000000000000000000000000000000000000000000000000815260040180806020018281038252601d8152602001807f75736572206d757374206e6f74206265207a65726f206164647265737300000081525060200191505060405180910390fd5b8273ffffffffffffffffffffffffffffffffffffffff16610ac982610abb8580519060200120610cc5565b610d1d90919063ffffffff16565b73ffffffffffffffffffffffffffffffffffffffff16141515610b54576040517f08c379a00000000000000000000000000000000000000000000000000000000081526004018080602001828103825260188152602001807f5369676e617475726520646f6573206e6f74206d61746368000000000000000081525060200191505060405180910390fd5b846040518082805190602001908083835b602083101515610b8a5780518252602082019150602081019050602083039250610b65565b6001836020036101000a03801982511681845116808217855250505050505090500191505060405180910390208673ffffffffffffffffffffffffffffffffffffffff167f7a53b76f68935f59d3983a6a8aec2e1f927b2a170f4cc3bb2bb0e955e1c7d176866040518080602001828103825283818151815260200191508051906020019080838360005b83811015610c30578082015181840152602081019050610c15565b50505050905090810190601f168015610c5d5780820380516001836020036101000a031916815260200191505b509250505060405180910390a3846000808873ffffffffffffffffffffffffffffffffffffffff1673ffffffffffffffffffffffffffffffffffffffff1681526020019081526020016000209080519060200190610cbc929190610e6c565b50505050505050565b60008160405160200180807f19457468657265756d205369676e6564204d6573736167653a0a333200000000815250601c01828152602001915050604051602081830303815290604052805190602001209050919050565b600060418251141515610d335760009050610e1e565b60008060006020850151925060408501519150606085015160001a90507f7fffffffffffffffffffffffffffffff5d576e7357a4501ddfe92f46681b20a082600190041115610d885760009350505050610e1e565b601b8160ff1614158015610da05750601c8160ff1614155b15610db15760009350505050610e1e565b60018682858560405160008152602001604052604051808581526020018460ff1660ff1681526020018381526020018281526020019450505050506020604051602081039080840390855afa158015610e0e573d6000803e3d6000fd5b5050506020604051035193505050505b92915050565b50805460018160011615610100020316600290046000825580601f10610e4a5750610e69565b601f016020900490600052602060002090810190610e689190610eec565b5b50565b828054600181600116156101000203166002900490600052602060002090601f016020900481019282601f10610ead57805160ff1916838001178555610edb565b82800160010185558215610edb579182015b82811115610eda578251825591602001919060010190610ebf565b5b509050610ee89190610eec565b5090565b610f0e91905b80821115610f0a576000816000905550600101610ef2565b5090565b9056fea165627a7a72305820e1d0930b5c3419bf45b1858de08c61691716489007e2c2ed22535aa6cb02884c0029",
  "source": "pragma solidity ^0.5.0;\n\nimport \"./ISignedRegistry.sol\";\nimport \"openzeppelin-solidity/contracts/cryptography/ECDSA.sol\";\n\n/**\n * @title SignedRegistry\n * @author Luis Dominguez <ld@luis.sh>, Jordan Ellis <jelli@dorg.tech>\n *\n * @dev This is a very basic contract which acts as a simple store for addresses, with CRUD.\n * Public-facing functions are seperated from internal functions, one dedicated\n * to logic in exposing functionality, the other for the actual logic.\n *\n * Any extra data can be passed as bytes, which allows for complete flexibility.\n */\ncontract SignedRegistry is ISignedRegistry {\n\n    using ECDSA for bytes32;\n\n    event Add(\n        address indexed _id,\n        bytes indexed _metadata,\n        bytes _sig\n    );\n\n    event Remove(\n        address indexed _id,\n        bytes indexed _metadata\n    );\n\n    event Update(\n        address indexed _id,\n        bytes indexed _oldMetadata,\n        bytes indexed _newMetadata,\n        bytes _sig\n    );\n\n    mapping (address => bytes) public registry;\n\n    /**\n     * @dev Throws if the data's signature doesn't match the user's public key.\n     *\n     * @param user address of the signer\n     * @param data data being signed\n     * @param sig user signed data\n     */\n    modifier signed(\n        address user,\n        bytes memory data,\n        bytes memory sig\n    ) {\n        require(user != address(0), \"user must not be zero address\");\n        require(\n            keccak256(data).toEthSignedMessageHash().recover(sig) == user,\n            \"Signature does not match\"\n        );\n        _;\n    }\n\n    /**\n     * @dev Simple add function, adds an address along with metadata associated with the identity.\n     * Public interface for _add().\n     *\n     * @param id address Address to add\n     * @param metadata bytes Metadata to link to the address\n     * @param sig the user's signature over this metadata\n     */\n    function add(\n        address id,\n        bytes memory metadata,\n        bytes memory sig\n    ) public {\n        _add(id, metadata, sig);\n    }\n\n    /**\n     * @dev Simple remove function, removes an address along with metadata associated with the identity.\n     * Public interface for _remove().\n     *\n     * @param id address Address to delete\n     */\n    function remove(address id) public {\n        _remove(id);\n    }\n\n    /**\n     * @dev Simple update function, updates an address along with metadata associated with the identity.\n     * Public interface for _update().\n     *\n     * @param id address Address to update\n     * @param metadata bytes Metadata to link to the address\n     * @param sig the user's signature over this metadata\n     */\n    function update(\n        address id,\n        bytes memory metadata,\n        bytes memory sig\n    ) public {\n        _update(id, metadata, sig);\n    }\n\n    /**\n      Internal functions\n    */\n\n    /**\n     * @dev Adds an address along with metadata associated with the identity.\n     * Internal logic for adding.\n     *\n     * @param id address Address to add\n     * @param metadata bytes Metadata to link to the address\n     * @param sig the user's signature over this metadata\n     */\n    function _add(\n        address id,\n        bytes memory metadata,\n        bytes memory sig\n    ) internal signed(id, metadata, sig) {\n        emit Add(id, metadata, sig);\n        registry[id] = metadata;\n    }\n\n    /**\n     * @dev Removes an address along with metadata associated with the identity.\n     * Internal logic for deleting.\n     *\n     * @param id address Address to delete\n     */\n    function _remove(address id) internal {\n        emit Remove(id, registry[id]);\n        delete registry[id];\n    }\n\n    /**\n     * @dev Updates an address along with metadata associated with the identity.\n     * Internal logic for updating.\n     *\n     * @param id address Address to update\n     * @param metadata bytes Metadata to link to the address\n     * @param sig the user's signature over this metadata\n     */\n    function _update(\n        address id,\n        bytes memory metadata,\n        bytes memory sig\n    ) internal signed(id, metadata, sig) {\n        emit Update(id, registry[id], metadata, sig);\n        registry[id] = metadata;\n    }\n}\n",
  "sourcePath": "/home/jelli/Dev/Repos/dOrg/ID-DAO/dao/contracts/registry/SignedRegistry.sol",
  "compiler": {
    "name": "solc",
    "version": "0.5.4+commit.9549d8ff.Emscripten.clang"
  },
  "schemaVersion": "3.0.11",
  "updatedAt": "2019-09-15T17:44:11.197Z",
  "devdoc": {
    "author": "Luis Dominguez <ld@luis.sh>, Jordan Ellis <jelli@dorg.tech>",
    "details": "This is a very basic contract which acts as a simple store for addresses, with CRUD. Public-facing functions are seperated from internal functions, one dedicated to logic in exposing functionality, the other for the actual logic. * Any extra data can be passed as bytes, which allows for complete flexibility.",
    "methods": {
      "add(address,bytes,bytes)": {
        "details": "Simple add function, adds an address along with metadata associated with the identity. Public interface for _add().",
        "params": {
          "id": "address Address to add",
          "metadata": "bytes Metadata to link to the address",
          "sig": "the user's signature over this metadata"
        }
      },
      "remove(address)": {
        "details": "Simple remove function, removes an address along with metadata associated with the identity. Public interface for _remove().",
        "params": {
          "id": "address Address to delete"
        }
      },
      "update(address,bytes,bytes)": {
        "details": "Simple update function, updates an address along with metadata associated with the identity. Public interface for _update().",
        "params": {
          "id": "address Address to update",
          "metadata": "bytes Metadata to link to the address",
          "sig": "the user's signature over this metadata"
        }
      }
    },
    "title": "SignedRegistry"
  },
  "userdoc": {
    "methods": {}
  }
}