{
  "contractName": "SignedRegistry",
  "abi": [
    {
      "constant": true,
      "inputs": [
        {
          "internalType": "address",
          "name": "",
          "type": "address"
        }
      ],
      "name": "registry",
      "outputs": [
        {
          "internalType": "bytes",
          "name": "",
          "type": "bytes"
        }
      ],
      "payable": false,
      "stateMutability": "view",
      "type": "function"
    },
    {
      "anonymous": false,
      "inputs": [
        {
          "indexed": true,
          "internalType": "address",
          "name": "_id",
          "type": "address"
        },
        {
          "indexed": true,
          "internalType": "bytes",
          "name": "_metadata",
          "type": "bytes"
        },
        {
          "indexed": false,
          "internalType": "bytes",
          "name": "_sig",
          "type": "bytes"
        }
      ],
      "name": "Add",
      "type": "event"
    },
    {
      "anonymous": false,
      "inputs": [
        {
          "indexed": true,
          "internalType": "address",
          "name": "_id",
          "type": "address"
        },
        {
          "indexed": true,
          "internalType": "bytes",
          "name": "_metadata",
          "type": "bytes"
        }
      ],
      "name": "Remove",
      "type": "event"
    },
    {
      "anonymous": false,
      "inputs": [
        {
          "indexed": true,
          "internalType": "address",
          "name": "_id",
          "type": "address"
        },
        {
          "indexed": true,
          "internalType": "bytes",
          "name": "_oldMetadata",
          "type": "bytes"
        },
        {
          "indexed": true,
          "internalType": "bytes",
          "name": "_newMetadata",
          "type": "bytes"
        },
        {
          "indexed": false,
          "internalType": "bytes",
          "name": "_sig",
          "type": "bytes"
        }
      ],
      "name": "Update",
      "type": "event"
    },
    {
      "constant": false,
      "inputs": [
        {
          "internalType": "address",
          "name": "id",
          "type": "address"
        },
        {
          "internalType": "bytes",
          "name": "metadata",
          "type": "bytes"
        },
        {
          "internalType": "bytes",
          "name": "sig",
          "type": "bytes"
        }
      ],
      "name": "add",
      "outputs": [],
      "payable": false,
      "stateMutability": "nonpayable",
      "type": "function"
    },
    {
      "constant": false,
      "inputs": [
        {
          "internalType": "address",
          "name": "id",
          "type": "address"
        }
      ],
      "name": "remove",
      "outputs": [],
      "payable": false,
      "stateMutability": "nonpayable",
      "type": "function"
    },
    {
      "constant": false,
      "inputs": [
        {
          "internalType": "address",
          "name": "id",
          "type": "address"
        },
        {
          "internalType": "bytes",
          "name": "metadata",
          "type": "bytes"
        },
        {
          "internalType": "bytes",
          "name": "sig",
          "type": "bytes"
        }
      ],
      "name": "update",
      "outputs": [],
      "payable": false,
      "stateMutability": "nonpayable",
      "type": "function"
    }
  ],
  "bytecode": "0x608060405234801561001057600080fd5b50610f1a806100206000396000f3fe608060405234801561001057600080fd5b506004361061004c5760003560e01c8063038defd71461005157806329092d0e1461010e578063f89b1f3614610152578063fa2a95f3146102c4575b600080fd5b6100936004803603602081101561006757600080fd5b81019080803573ffffffffffffffffffffffffffffffffffffffff169060200190929190505050610436565b6040518080602001828103825283818151815260200191508051906020019080838360005b838110156100d35780820151818401526020810190506100b8565b50505050905090810190601f1680156101005780820380516001836020036101000a031916815260200191505b509250505060405180910390f35b6101506004803603602081101561012457600080fd5b81019080803573ffffffffffffffffffffffffffffffffffffffff1690602001909291905050506104e6565b005b6102c26004803603606081101561016857600080fd5b81019080803573ffffffffffffffffffffffffffffffffffffffff169060200190929190803590602001906401000000008111156101a557600080fd5b8201836020820111156101b757600080fd5b803590602001918460018302840111640100000000831117156101d957600080fd5b91908080601f016020809104026020016040519081016040528093929190818152602001838380828437600081840152601f19601f8201169050808301925050505050505091929192908035906020019064010000000081111561023c57600080fd5b82018360208201111561024e57600080fd5b8035906020019184600183028401116401000000008311171561027057600080fd5b91908080601f016020809104026020016040519081016040528093929190818152602001838380828437600081840152601f19601f8201169050808301925050505050505091929192905050506104f2565b005b610434600480360360608110156102da57600080fd5b81019080803573ffffffffffffffffffffffffffffffffffffffff1690602001909291908035906020019064010000000081111561031757600080fd5b82018360208201111561032957600080fd5b8035906020019184600183028401116401000000008311171561034b57600080fd5b91908080601f016020809104026020016040519081016040528093929190818152602001838380828437600081840152601f19601f820116905080830192505050505050509192919290803590602001906401000000008111156103ae57600080fd5b8201836020820111156103c057600080fd5b803590602001918460018302840111640100000000831117156103e257600080fd5b91908080601f016020809104026020016040519081016040528093929190818152602001838380828437600081840152601f19601f820116905080830192505050505050509192919290505050610502565b005b60006020528060005260406000206000915090508054600181600116156101000203166002900480601f0160208091040260200160405190810160405280929190818152602001828054600181600116156101000203166002900480156104de5780601f106104b3576101008083540402835291602001916104de565b820191906000526020600020905b8154815290600101906020018083116104c157829003601f168201915b505050505081565b6104ef81610512565b50565b6104fd838383610648565b505050565b61050d8383836109c5565b505050565b6000808273ffffffffffffffffffffffffffffffffffffffff1673ffffffffffffffffffffffffffffffffffffffff16815260200190815260200160002060405180828054600181600116156101000203166002900480156105ab5780601f106105895761010080835404028352918201916105ab565b820191906000526020600020905b815481529060010190602001808311610597575b505091505060405180910390208173ffffffffffffffffffffffffffffffffffffffff167fbdcd99ab14b163a4dad6ebffc4e2452d7366d9bc8e3629d7dc083976c59bd0c560405160405180910390a36000808273ffffffffffffffffffffffffffffffffffffffff1673ffffffffffffffffffffffffffffffffffffffff16815260200190815260200160002060006106459190610df8565b50565b828282600073ffffffffffffffffffffffffffffffffffffffff168373ffffffffffffffffffffffffffffffffffffffff1614156106ee576040517f08c379a000000000000000000000000000000000000000000000000000000000815260040180806020018281038252601d8152602001807f75736572206d757374206e6f74206265207a65726f206164647265737300000081525060200191505060405180910390fd5b8273ffffffffffffffffffffffffffffffffffffffff16610727826107198580519060200120610c9c565b610cf490919063ffffffff16565b73ffffffffffffffffffffffffffffffffffffffff16146107b0576040517f08c379a00000000000000000000000000000000000000000000000000000000081526004018080602001828103825260188152602001807f5369676e617475726520646f6573206e6f74206d61746368000000000000000081525060200191505060405180910390fd5b846040518082805190602001908083835b602083106107e457805182526020820191506020810190506020830392506107c1565b6001836020036101000a03801982511681845116808217855250505050505090500191505060405180910390206000808873ffffffffffffffffffffffffffffffffffffffff1673ffffffffffffffffffffffffffffffffffffffff16815260200190815260200160002060405180828054600181600116156101000203166002900480156108aa5780601f106108885761010080835404028352918201916108aa565b820191906000526020600020905b815481529060010190602001808311610896575b505091505060405180910390208773ffffffffffffffffffffffffffffffffffffffff167fe75428ff36dfa6c46a5ad298e6a51c0894ddbd9aba5d5c923ca424d9098ca3d1876040518080602001828103825283818151815260200191508051906020019080838360005b83811015610930578082015181840152602081019050610915565b50505050905090810190601f16801561095d5780820380516001836020036101000a031916815260200191505b509250505060405180910390a4846000808873ffffffffffffffffffffffffffffffffffffffff1673ffffffffffffffffffffffffffffffffffffffff16815260200190815260200160002090805190602001906109bc929190610e40565b50505050505050565b828282600073ffffffffffffffffffffffffffffffffffffffff168373ffffffffffffffffffffffffffffffffffffffff161415610a6b576040517f08c379a000000000000000000000000000000000000000000000000000000000815260040180806020018281038252601d8152602001807f75736572206d757374206e6f74206265207a65726f206164647265737300000081525060200191505060405180910390fd5b8273ffffffffffffffffffffffffffffffffffffffff16610aa482610a968580519060200120610c9c565b610cf490919063ffffffff16565b73ffffffffffffffffffffffffffffffffffffffff1614610b2d576040517f08c379a00000000000000000000000000000000000000000000000000000000081526004018080602001828103825260188152602001807f5369676e617475726520646f6573206e6f74206d61746368000000000000000081525060200191505060405180910390fd5b846040518082805190602001908083835b60208310610b615780518252602082019150602081019050602083039250610b3e565b6001836020036101000a03801982511681845116808217855250505050505090500191505060405180910390208673ffffffffffffffffffffffffffffffffffffffff167f7a53b76f68935f59d3983a6a8aec2e1f927b2a170f4cc3bb2bb0e955e1c7d176866040518080602001828103825283818151815260200191508051906020019080838360005b83811015610c07578082015181840152602081019050610bec565b50505050905090810190601f168015610c345780820380516001836020036101000a031916815260200191505b509250505060405180910390a3846000808873ffffffffffffffffffffffffffffffffffffffff1673ffffffffffffffffffffffffffffffffffffffff1681526020019081526020016000209080519060200190610c93929190610e40565b50505050505050565b60008160405160200180807f19457468657265756d205369676e6564204d6573736167653a0a333200000000815250601c01828152602001915050604051602081830303815290604052805190602001209050919050565b60006041825114610d085760009050610df2565b60008060006020850151925060408501519150606085015160001a90507f7fffffffffffffffffffffffffffffff5d576e7357a4501ddfe92f46681b20a08260001c1115610d5c5760009350505050610df2565b601b8160ff1614158015610d745750601c8160ff1614155b15610d855760009350505050610df2565b60018682858560405160008152602001604052604051808581526020018460ff1660ff1681526020018381526020018281526020019450505050506020604051602081039080840390855afa158015610de2573d6000803e3d6000fd5b5050506020604051035193505050505b92915050565b50805460018160011615610100020316600290046000825580601f10610e1e5750610e3d565b601f016020900490600052602060002090810190610e3c9190610ec0565b5b50565b828054600181600116156101000203166002900490600052602060002090601f016020900481019282601f10610e8157805160ff1916838001178555610eaf565b82800160010185558215610eaf579182015b82811115610eae578251825591602001919060010190610e93565b5b509050610ebc9190610ec0565b5090565b610ee291905b80821115610ede576000816000905550600101610ec6565b5090565b9056fea265627a7a723158200fb41c0950c91e9b34284e315c0f90550745897e2045e36d4dfdc769eece417f64736f6c634300050b0032",
  "source": "pragma solidity ^0.5.0;\n\nimport \"./ISignedRegistry.sol\";\nimport \"openzeppelin-solidity/contracts/cryptography/ECDSA.sol\";\n\n/**\n * @title SignedRegistry\n * @author Luis Dominguez <ld@luis.sh>, Jordan Ellis <jelli@dorg.tech>\n *\n * @dev This is a very basic contract which acts as a simple store for addresses, with CRUD.\n * Public-facing functions are seperated from internal functions, one dedicated\n * to logic in exposing functionality, the other for the actual logic.\n *\n * Any extra data can be passed as bytes, which allows for complete flexibility.\n */\ncontract SignedRegistry is ISignedRegistry {\n\n    using ECDSA for bytes32;\n\n    event Add(\n        address indexed _id,\n        bytes indexed _metadata,\n        bytes _sig\n    );\n\n    event Remove(\n        address indexed _id,\n        bytes indexed _metadata\n    );\n\n    event Update(\n        address indexed _id,\n        bytes indexed _oldMetadata,\n        bytes indexed _newMetadata,\n        bytes _sig\n    );\n\n    mapping (address => bytes) public registry;\n\n    /**\n     * @dev Throws if the data's signature doesn't match the user's public key.\n     *\n     * @param user address of the signer\n     * @param data data being signed\n     * @param sig user signed data\n     */\n    modifier signed(\n        address user,\n        bytes memory data,\n        bytes memory sig\n    ) {\n        require(user != address(0), \"user must not be zero address\");\n        require(\n            keccak256(data).toEthSignedMessageHash().recover(sig) == user,\n            \"Signature does not match\"\n        );\n        _;\n    }\n\n    /**\n     * @dev Simple add function, adds an address along with metadata associated with the identity.\n     * Public interface for _add().\n     *\n     * @param id address Address to add\n     * @param metadata bytes Metadata to link to the address\n     * @param sig the user's signature over this metadata\n     */\n    function add(\n        address id,\n        bytes memory metadata,\n        bytes memory sig\n    ) public {\n        _add(id, metadata, sig);\n    }\n\n    /**\n     * @dev Simple remove function, removes an address along with metadata associated with the identity.\n     * Public interface for _remove().\n     *\n     * @param id address Address to delete\n     */\n    function remove(address id) public {\n        _remove(id);\n    }\n\n    /**\n     * @dev Simple update function, updates an address along with metadata associated with the identity.\n     * Public interface for _update().\n     *\n     * @param id address Address to update\n     * @param metadata bytes Metadata to link to the address\n     * @param sig the user's signature over this metadata\n     */\n    function update(\n        address id,\n        bytes memory metadata,\n        bytes memory sig\n    ) public {\n        _update(id, metadata, sig);\n    }\n\n    /**\n      Internal functions\n    */\n\n    /**\n     * @dev Adds an address along with metadata associated with the identity.\n     * Internal logic for adding.\n     *\n     * @param id address Address to add\n     * @param metadata bytes Metadata to link to the address\n     * @param sig the user's signature over this metadata\n     */\n    function _add(\n        address id,\n        bytes memory metadata,\n        bytes memory sig\n    ) internal signed(id, metadata, sig) {\n        emit Add(id, metadata, sig);\n        registry[id] = metadata;\n    }\n\n    /**\n     * @dev Removes an address along with metadata associated with the identity.\n     * Internal logic for deleting.\n     *\n     * @param id address Address to delete\n     */\n    function _remove(address id) internal {\n        emit Remove(id, registry[id]);\n        delete registry[id];\n    }\n\n    /**\n     * @dev Updates an address along with metadata associated with the identity.\n     * Internal logic for updating.\n     *\n     * @param id address Address to update\n     * @param metadata bytes Metadata to link to the address\n     * @param sig the user's signature over this metadata\n     */\n    function _update(\n        address id,\n        bytes memory metadata,\n        bytes memory sig\n    ) internal signed(id, metadata, sig) {\n        emit Update(id, registry[id], metadata, sig);\n        registry[id] = metadata;\n    }\n}\n",
  "sourcePath": "/home/jelli/Dev/Repos/dOrg/ID-DAO/dao/contracts/registry/SignedRegistry.sol",
  "compiler": {
    "name": "solc",
    "version": "0.5.11+commit.c082d0b4.Emscripten.clang"
  },
  "schemaVersion": "3.0.11",
  "updatedAt": "2019-09-26T23:59:57.338Z",
  "devdoc": {
    "author": "Luis Dominguez <ld@luis.sh>, Jordan Ellis <jelli@dorg.tech>",
    "details": "This is a very basic contract which acts as a simple store for addresses, with CRUD. Public-facing functions are seperated from internal functions, one dedicated to logic in exposing functionality, the other for the actual logic. * Any extra data can be passed as bytes, which allows for complete flexibility.",
    "methods": {
      "add(address,bytes,bytes)": {
        "details": "Simple add function, adds an address along with metadata associated with the identity. Public interface for _add().",
        "params": {
          "id": "address Address to add",
          "metadata": "bytes Metadata to link to the address",
          "sig": "the user's signature over this metadata"
        }
      },
      "remove(address)": {
        "details": "Simple remove function, removes an address along with metadata associated with the identity. Public interface for _remove().",
        "params": {
          "id": "address Address to delete"
        }
      },
      "update(address,bytes,bytes)": {
        "details": "Simple update function, updates an address along with metadata associated with the identity. Public interface for _update().",
        "params": {
          "id": "address Address to update",
          "metadata": "bytes Metadata to link to the address",
          "sig": "the user's signature over this metadata"
        }
      }
    },
    "title": "SignedRegistry"
  },
  "userdoc": {
    "methods": {}
  }
}